:100000000C9446000C9465000C9465000C946500FB
:100010000C9465000C9465000C9465000C946500CC
:100020000C9465000C9465000C9465000C946500BC
:100030000C9465000C94A3000C9465000C9465006E
:100040000C9465000C9465000C9465000C9465009C
:100050000C9465000C9465000C9465000C9465008C
:100060000C9465000C9465000C9465000C9465007C
:100070000C9465000C9465000C9465000C9465006C
:100080000C9465000C9465000C94650011241FBE4F
:10009000CFEFD0E4DEBFCDBF11E0A0E0B1E0ECE2F5
:1000A000F4E000E00BBF02C007900D92A231B1074F
:1000B000D9F721E0A2E1B1E001C01D92AD31B20754
:1000C000E1F70E94ED010C9414020C940000CF9310
:1000D000C82F8A3019F48DE00E9467008091C0001B
:1000E00085FFFCCFC093C60080E090E0CF910895DB
:1000F0008BE0809381008DE790E09093890080935E
:10010000880082E080936F00109285001092840036
:100110008091000190910101A0910201B091030131
:100120008093120190931301A0931401B0931501D1
:100130008FB780688FBF089510928100089581E085
:100140008093160108951F920F920FB60F921124FB
:100150000BB60F922F933F934F935F936F937F93C1
:100160008F939F93AF93BF93EF93FF93809112016F
:1001700090911301A0911401B09115010197A1096B
:10018000B1098093120190931301A0931401B093CD
:100190001501892B8A2B8B2B91F40E949F00809153
:1001A000000190910101A0910201B091030180939F
:1001B000120190931301A0931401B0931501FF91C4
:1001C000EF91BF91AF919F918F917F916F915F91CF
:1001D0004F913F912F910F900BBE0F900FBE0F903C
:1001E0001F901895609300017093010180930201A4
:1001F0009093030160931201709313018093140193
:100200009093150108958091180190911901823001
:10021000910561F128F4009769F0019791F0AAC067
:100220008430910509F457C008F440C0059709F4DB
:1002300094C0A0C081E090E09093190180931801D0
:100240009FC080911C01813051F484E090E0909334
:1002500019018093180181E080931B0191C082E015
:1002600090E090931901809318018AC080911C013D
:10027000813051F484E090E090931901809318014B
:1002800081E080931B017CC080911A01813039F498
:1002900083E090E0909319018093180171C081E090
:1002A00090E090931901809318016AC080911C011D
:1002B000813051F484E090E090931901809318010B
:1002C00081E080931B015CC082E090E09093190173
:1002D0008093180155C080911C0181110BC0909131
:1002E0001B01913039F485E090E0909319018093DF
:1002F000180146C0811144C080911B01811140C08A
:1003000080911701813051F482E090E090931901BF
:100310008093180181E080931A0132C0823091F4F9
:1003200080911A01813039F483E090E090931901B3
:100330008093180125C081E090E09093190180938B
:1003400018011EC08430E1F482E090E0909319011E
:100350008093180110921A0113C080911C01813002
:1003600079F484E090E09093190180931801109241
:100370001B0106C081E090E0909319018093180161
:10038000809118019091190182309105C1F028F4F3
:10039000009749F0019769F01CC08330910599F0EE
:1003A0000697D0F016C081E08093170110921A01D1
:1003B000089581E08093170180931A01089582E0E7
:1003C00080931701089584E08093170110921A0119
:1003D000089581E080931701089511B88FEF82B9D5
:1003E00084B915B86CE271E080E090E00E94F20000
:1003F0000E9478001092170110921C0110921901AE
:100400001092180190B181E08927817080931C01BE
:100410000E940301809116018823E1F310921601D6
:0C0420008091170185B9EECFF894FFCF52
:10042C000100000000000002000000006700000056
:02043C000000BE
:00000001FF
