:100000000C9446000C9465000C9465000C946500FB
:100010000C9465000C9465000C9465000C946500CC
:100020000C9465000C9465000C9465000C946500BC
:100030000C9465000C94A3000C9465000C9465006E
:100040000C9465000C9465000C9465000C9465009C
:100050000C9465000C9465000C9465000C9465008C
:100060000C9465000C9465000C9465000C9465007C
:100070000C9465000C9465000C9465000C9465006C
:100080000C9465000C9465000C94650011241FBE4F
:10009000CFEFD0E4DEBFCDBF11E0A0E0B1E0E2EEF3
:1000A000F3E000E00BBF02C007900D92A231B10750
:1000B000D9F721E0A2E1B1E001C01D92AC31B20755
:1000C000E1F70E94C6010C94EF010C940000CF935D
:1000D000C82F8A3019F48DE00E9467008091C0001B
:1000E00085FFFCCFC093C60080E090E0CF910895DB
:1000F0008BE0809381008DE790E09093890080935E
:10010000880082E080936F00109285001092840036
:100110008091000190910101A0910201B091030131
:100120008093120190931301A0931401B0931501D1
:100130008FB780688FBF089510928100089581E085
:100140008093160108951F920F920FB60F921124FB
:100150000BB60F922F933F934F935F936F937F93C1
:100160008F939F93AF93BF93EF93FF93809112016F
:1001700090911301A0911401B09115010197A1096B
:10018000B1098093120190931301A0931401B093CD
:100190001501892B8A2B8B2B91F40E949F00809153
:1001A000000190910101A0910201B091030180939F
:1001B000120190931301A0931401B0931501FF91C4
:1001C000EF91BF91AF919F918F917F916F915F91CF
:1001D0004F913F912F910F900BBE0F900FBE0F903C
:1001E0001F901895609300017093010180930201A4
:1001F0009093030160931201709313018093140193
:100200009093150108958091190190911A018230FF
:10021000910541F128F4009761F0019789F080C0C1
:100220008430910509F442C078F1059709F450C073
:1002300077C081E090E090931A018093190176C015
:1002400080911B01813039F484E090E090931A0191
:10025000809319016BC082E090E090931A01809323
:10026000190164C080911B01813039F484E090E071
:1002700090931A018093190159C083E090E0909304
:100280001A018093190152C080911B01813039F409
:1002900084E090E090931A018093190147C081E0B7
:1002A00090E090931A018093190140C080911B0146
:1002B000813039F484E090E090931A018093190121
:1002C00035C085E090E090931A01809319012EC00B
:1002D00080911B018130E9F480911701823059F03F
:1002E000843081F0813011F582E090E090931A0122
:1002F000809319011BC083E090E090931A018093D2
:10030000190114C081E090E090931A0180931901C3
:100310000DC084E090E090931A018093190106C00B
:1003200081E090E090931A01809319018091190166
:1003300090911A0183309105C9F030F48130910514
:1003400049F0029769F0089584309105A9F0059766
:10035000C1F0089581E080931801809317010895FA
:1003600082E08093180180931701089584E08093C0
:100370001801809317010895809117018093180147
:1003800008958091170180931801089511B88FEF97
:1003900082B984B915B86CE271E080E090E00E9407
:1003A000F2000E9478001092180110921B01109226
:1003B000170110921A011092190190B181E089275A
:1003C000817080931B010E94030180911601882394
:1003D000E1F3109216018091180185B9EECFF894DF
:0203E000FFCF4D
:1003E20001000000000000020000000067000000A1
:0203F200000009
:00000001FF
