:100000000C9446000C9465000C9465000C946500FB
:100010000C9465000C9465000C9465000C946500CC
:100020000C9465000C9465000C9465000C946500BC
:100030000C9465000C94A3000C9465000C9465006E
:100040000C9465000C9465000C9465000C9465009C
:100050000C9465000C9465000C9465000C9465008C
:100060000C9465000C9465000C9465000C9465007C
:100070000C9465000C9465000C9465000C9465006C
:100080000C9465000C9465000C94650011241FBE4F
:10009000CFEFD0E4DEBFCDBF11E0A0E0B1E0E8E8F3
:1000A000F4E000E00BBF02C007900D92A231B1074F
:1000B000D9F721E0A2E1B1E001C01D92AC31B20755
:1000C000E1F70E941C020C9442020C940000CF93B2
:1000D000C82F8A3019F48DE00E9467008091C0001B
:1000E00085FFFCCFC093C60080E090E0CF910895DB
:1000F0008BE0809381008DE790E09093890080935E
:10010000880082E080936F00109285001092840036
:100110008091000190910101A0910201B091030131
:100120008093120190931301A0931401B0931501D1
:100130008FB780688FBF089510928100089581E085
:100140008093160108951F920F920FB60F921124FB
:100150000BB60F922F933F934F935F936F937F93C1
:100160008F939F93AF93BF93EF93FF93809112016F
:1001700090911301A0911401B09115010197A1096B
:10018000B1098093120190931301A0931401B093CD
:100190001501892B8A2B8B2B91F40E949F00809153
:1001A000000190910101A0910201B091030180939F
:1001B000120190931301A0931401B0931501FF91C4
:1001C000EF91BF91AF919F918F917F916F915F91CF
:1001D0004F913F912F910F900BBE0F900FBE0F903C
:1001E0001F901895609300017093010180930201A4
:1001F0009093030160931201709313018093140193
:100200009093150108958091190190911A018230FF
:10021000910509F444C028F4009769F0019759F05A
:10022000B8C08430910509F470C008F453C0059734
:1002300009F49DC0AEC080911B01813079F482E049
:1002400090E090931A0180931901809118018930F0
:1002500008F0A3C08F5F809318019FC0823079F4AB
:1002600083E090E090931A01809319018091180126
:10027000882309F492C08150809318018EC0833086
:1002800039F485E090E090931A018093190185C0BC
:1002900081E090E090931A01809319017EC08091D3
:1002A0001B01811107C084E090E090931A018093B4
:1002B000190173C0833039F485E090E090931A01FE
:1002C000809319016AC082E090E090931A018093B4
:1002D000190163C080911B01811107C084E090E087
:1002E00090931A018093190158C0833039F485E046
:1002F00090E090931A01809319014FC083E090E041
:1003000090931A018093190148C080911B0181309C
:1003100071F482E090E090931A018093190180912A
:1003200018018930D0F58F5F8093180136C0823074
:1003300071F483E090E090931A0180931901809109
:100340001801882351F181508093180126C0833011
:1003500039F485E090E090931A01809319011DC053
:1003600084E090E090931A018093190116C0809167
:100370001B01833039F485E090E090931A0180935B
:1003800019010BC084E090E090931A018093190149
:1003900004C010921A0110921901809119019091D4
:1003A0001A0182309105A9F028F4009751F00197C5
:1003B00059F03DC08430910591F1F0F0059791F12D
:1003C00036C010921801089510921801109217016A
:1003D000089580911801893048F4909117019A305E
:1003E00029F48F5F809318011092170180911701F3
:1003F0008F5F80931701089580911801882349F039
:10040000909117019A3029F481508093180110922D
:100410001701809117018F5F809317010895109243
:100420001701089510921801109217010895109263
:10043000180110921701089511B88FEF82B984B98D
:1004400015B864E670E080E090E00E94F2000E943F
:1004500078001092180181E090E090931A01809347
:10046000190180B18095837080931B010E94030164
:10047000809116018823E1F31092160180911801F2
:0804800085B9EFCFF894FFCF1E
:1004880001000000000000020000000067000000FA
:02049800000062
:00000001FF
