:100000000C9456000C946D000C946D000C946D00D3
:100010000C946D000C946D000C946D000C946D00AC
:100020000C946D000C946D000C946D000C946D009C
:100030000C946D000C946D000C946D000C946D008C
:100040000C946D000C946D000C946D000C946D007C
:100050000C946D000C946D000C946D000C946D006C
:100060000C946D000C946D000C946D000C946D005C
:100070000C946D000C946D000C946D000C946D004C
:100080000C946D000C946D000C946D009C0090001D
:1000900090009200920094009400960096009600C2
:1000A0009800980098009A009A009A0011241FBEA8
:1000B000CFEFD0E4DEBFCDBF11E0A0E0B1E0E4E5DA
:1000C000F1E000E00BBF02C007900D92AE30B10727
:1000D000D9F70E9480000C94A8000C940000CF93E4
:1000E000C82F8A3019F48DE00E946F008091C00003
:1000F00085FFFCCFC093C60080E090E0CF910895CB
:1001000011B88FEF82B984B915B880B18095E82F06
:10011000EF708E2F90E0FC01EA5BFF4F0C949F0084
:1001200080E60BC080E709C088E307C08CE305C008
:100130008EE303C08FE301C080E485B9E6CFEE0F04
:10014000FF1F0024001C0BBE0790F691E02D0994C0
:04015000F894FFCF51
:0E01540000000002000000006F00000000002C
:00000001FF
