:100000000C9446000C9465000C9465000C946500FB
:100010000C9465000C9465000C9465000C946500CC
:100020000C9465000C9465000C9465000C946500BC
:100030000C9465000C9465000C9465000C946500AC
:100040000C9465000C9465000C9465000C9465009C
:100050000C9465000C9465000C9465000C9465008C
:100060000C9465000C9465000C9465000C9465007C
:100070000C9465000C9465000C9465000C9465006C
:100080000C9465000C9465000C94650011241FBE4F
:10009000CFEFD0E4DEBFCDBF11E0A0E0B1E0EEEEE7
:1000A000F2E000E00BBF02C007900D92AE30B10746
:1000B000D9F721E0AEE0B1E001C01D92A331B20753
:1000C000E1F70E9458010C9475010C940000CF9345
:1000D000C82F8A3019F48DE00E9467008091C0001B
:1000E00085FFFCCFC093C60080E090E0CF910895DB
:1000F00080910E0190910F0182309105D9F128F481
:10010000009769F0019791F0C8C08430910509F417
:100110007BC008F454C0059709F49BC0BEC081E0C1
:1001200090E090930F0180930E0108958091120149
:10013000813081F480911101813061F482E090E09E
:1001400090930F0180930E011092110181E2809330
:10015000100108C081E090E090930F0180930E01A0
:1001600010921001809112018111A1C081E0809351
:100170001101089580911201813081F48091110163
:10018000813061F483E090E090930F0180930E0141
:100190001092110182E18093100109C082E090E089
:1001A00090930F0180930E0181E280931001809162
:1001B000120181117CC081E080931101089580912A
:1001C0001201813081F480911101813061F484E069
:1001D00090E090930F0180930E01109211018CE03A
:1001E0008093100109C083E090E090930F01809309
:1001F0000E0182E18093100180911201811157C09C
:1002000081E080931101089580911201813081F481
:1002100080911101813061F485E090E090930F01AD
:1002200080930E01109211018FE38093100109C099
:1002300084E090E090930F0180930E018CE0809316
:10024000100180911201811132C081E0809311016F
:10025000089580911201813079F4809111018130EB
:1002600059F481E090E090930F0180930E01109279
:1002700011011092100109C085E090E090930F01E8
:1002800080930E018FE38093100180911201811100
:100290000EC081E080931101089581E090E0909379
:1002A0000F0180930E011092110110921001089518
:1002B00011B88FEF82B984B915B81092120110925B
:1002C00010011092110181E090E090930F01809352
:1002D0000E0190B181E089278170809312010E9404
:0E02E00078008091100185B9F4CFF894FFCF1B
:0E02EE00000000020000000067000000000099
:00000001FF
