:100000000C94BE000C94DD000C94DD000C94DD001B
:100010000C94DD000C94DD000C94DD000C94DD00EC
:100020000C94DD000C94DD000C94DD000C94DD00DC
:100030000C94DD000C94E8030C94DD000C94DD00BE
:100040000C94DD000C94DD000C94DD000C94DD00BC
:100050000C94DD000C94DD000C94DD000C94DD00AC
:100060000C94DD000C94DD000C94DD000C94DD009C
:100070000C94DD000C94DD000C94DD000C94DD008C
:100080000C94DD000C94DD000C94DD00C202C5026E
:10009000C802CB02CE02D102D402D702DA02DD02BC
:1000A000E002E302E602E902EC02EF02F202F502EC
:1000B000F802FB02FE020103040307030A030D0317
:1000C00010031303160319031C031F032203250344
:1000D00028032B032E033103340337033A033D0374
:1000E00040034303460349034C034F0352035503A4
:1000F000580349047B047B047B047B047B047B045E
:100100007B047B047B047B047B047B047B047B04F7
:100110007B047B047B047B047B047B047B047B04E7
:100120007B047B047B047B047B047B047B047B04D7
:100130007B047B047B047B0478047B047B047B04CA
:100140007B047B047B0473047B047B047B047B04BF
:100150007B0476044C044F045204550458045B0499
:100160005E04610464047B047B047B047B047B04E5
:100170007B047B0467046A046D04700411241FBEB1
:10018000CFEFD0E4DEBFCDBF11E0A0E0B1E0E0EB07
:10019000FBE000E00BBF02C007900D92A831B10751
:1001A000D9F721E0A8E1B1E001C01D92A132B20768
:1001B000E1F70E9437040C94D6050C940000CF930D
:1001C000C82F8A3019F48DE00E94DF008091C000B2
:1001D00085FFFCCFC093C60080E090E0CF910895EA
:1001E00040E050E00CC000002F5F3F4F02C020E015
:1001F00030E0273063E03607B4F34F5F5F4F4817B6
:100200005907ACF308959BB19F7B9BB988B98BB11B
:1002100080688BB900008BB18F778BB982E090E05A
:100220000E94F000089581E00E9403010895813149
:1002300020F481580E940301089581550E94030112
:10024000089584E690E00E94F00088E30E94030194
:1002500086E00E9403018FE00E94030181E00E947A
:1002600003018AE090E00E94F00008959BB1906441
:100270009BB988B98BB180688BB900008BB18F773F
:100280008BB981E090E00E94F0000895EF92FF9218
:100290000F931F93CF93DF93182FEB010E9413014D
:1002A0000EC001E0010F812F0E9417017E018FEF28
:1002B000E81AF80A88810E943601102FE701888128
:1002C0008111EFCFDF91CF911F910F91FF90EF90B0
:1002D0000895442349F021E030E002C0220F331F8B
:1002E0006A95E2F7822B089521E030E002C0220FE8
:1002F000331F6A95E2F720958223089521E030E0CC
:1003000002C0220F331F6A95E2F78223089540E06E
:1003100064E08FEF0E94690188B9000086B160E057
:1003200080950E947E01811180C086B161E0809538
:100330000E947E0181117BC086B162E080950E949F
:100340007E01811176C086B163E080950E947E01B6
:10035000811171C040E065E08FEF0E94690188B9AA
:10036000000086B160E080950E947E01811165C029
:1003700086B161E080950E947E01811160C086B1E6
:1003800062E080950E947E0181115BC086B163E0CE
:1003900080950E947E01811156C040E066E08FEF9B
:1003A0000E94690188B9000086B160E080950E94D2
:1003B0007E0181114AC086B161E080950E947E0174
:1003C000811145C086B162E080950E947E01811155
:1003D00040C086B163E080950E947E0181113BC0E0
:1003E00040E067E08FEF0E94690188B9000086B1A4
:1003F00060E080950E947E0181112FC086B161E08E
:1004000080950E947E0181112AC086B162E08095AC
:100410000E947E01811125C086B163E080950E9413
:100420007E018823F9F084E4089581E3089584E34C
:10043000089587E308958AE2089582E3089585E3A5
:10044000089588E3089580E3089583E3089586E39B
:10045000089589E3089583E2089581E4089582E48C
:10046000089583E408951F93CF93DF93182F86E0B8
:1004700090E00E94B504EC01812F90E00E94B50449
:10048000998388831A821B821C821D83CE01DF918F
:10049000CF911F910895FC01948181E0911180E03A
:1004A0000895FC012481958181E0291380E008955D
:1004B000FC011282138214820895FC0194818581CB
:1004C000981788F4A081B1818381A80FB11D6C9326
:1004D00083818F5F65810E947E04938384818F5F17
:1004E000848380E0089581E00895FC01848188235D
:1004F00089F0A081B1818281A80FB11D2C911C923D
:1005000082818F5F65810E947E0492838481815005
:100510008483822F08950F931F93CF93DF93B62F79
:10052000A72FF82FE92F022F132FD42FC52F04C088
:10053000062F172FD82FC92F6B2F7A2F8F2F9E2F73
:10054000202F312F4D2F5C2F0E948A04B02FA12F16
:10055000FD2FEC2F611571058105910549F7602F7D
:10056000712F8D2F9C2FDF91CF911F910F910895A7
:1005700090E08333910508F09EC0FC01EA5BFF4FD9
:100580000C94AC048EE788B9089588E488B908957E
:100590008DE388B908958DE688B908958BE488B90C
:1005A000089587E688B9089587E788B908958CE4A7
:1005B00088B908958FE788B908958FE688B90895B6
:1005C0008FE588B9089583E788B9089586E388B9E7
:1005D000089589E788B9089587E388B9089587E180
:1005E00088B9089580E888B9089586E788B908959C
:1005F0008BE588B9089583E588B9089582E188B9C3
:10060000089588E788B9089582E388B9089585E553
:1006100088B908958EE588B9089581E588B9089567
:100620008FE188B9089586E188B9089581E188B994
:10063000089583E388B908958AE788B9089580E723
:1006400088B908958AE288B908958BE088B9089539
:1006500085E288B908958BE688B9089589E188B95B
:1006600008958DE588B9089583E188B9089589E4EE
:1006700088B908958AE588B908958AE088B9089507
:1006800080E588B9089584E288B9089583E488B93B
:10069000089582E488B9089588E188B9089587E0CB
:1006A00088B9089581E388B9089581E688B90895E5
:1006B0008DE088B9089581E088B908951F93CF939C
:1006C000DF93182F85E090E00E94B504EC01812FA4
:1006D00090E00E94B504998388831A821B821C8350
:1006E000CE01DF91CF911F910895FC01938181E0AC
:1006F000911180E00895FC012381948181E0291308
:1007000080E00895FC01128213820895FC01938118
:100710008481981770F4A081B1818281A80FB11DE6
:100720006C9383818F5F838382818F5F828380E07C
:10073000089581E00895FC018381882361F09FEF93
:10074000980F93838281815082830190F081E02D04
:10075000E80FF11D808108956093000170930101FD
:100760008093020190930301609318017093190123
:1007700080931A0190931B0108958BE08093810070
:100780008DE790E0909389008093880082E08093C9
:100790006F0010928500109284008091000190916A
:1007A0000101A0910201B09103018093180190937F
:1007B0001901A0931A01B0931B018FB780688FBFF6
:1007C000089510928100089581E080931C0108959E
:1007D0001F920F920FB60F9211240BB60F922F9308
:1007E0003F934F935F936F937F938F939F93AF93B9
:1007F000BF93EF93FF938091180190911901A091FD
:100800001A01B0911B010197A109B1098093180148
:1008100090931901A0931A01B0931B01892B8A2B85
:100820008B2B91F40E94E4038091000190910101CF
:10083000A0910201B09103018093180190931901D6
:10084000A0931A01B0931B01FF91EF91BF91AF915B
:100850009F918F917F916F915F914F913F912F91D8
:100860000F900BBE0F900FBE0F901F9018958FEF3B
:1008700084B915B880EF87B98FE088B90E948701E5
:1008800090E085349105B8F5FC01E758FF4F0C94D2
:10089000AC048FE185B9F2CF81E085B9EFCF82E07A
:1008A00085B9ECCF83E085B9E9CF84E085B9E6CF9F
:1008B00085E085B9E3CF86E085B9E0CF87E085B9EB
:1008C000DDCF88E085B9DACF89E085B9D7CF8AE076
:1008D00085B9D4CF8BE085B9D1CF8CE085B9CECFA7
:1008E0008DE085B9CBCF8EE085B9C8CF15B8C6CF1E
:1008F0008FE085B9C3CF8BE185B9C0CF991B79E073
:1009000004C0991F961708F0961B881F7A95C9F79F
:1009100080950895A1E21A2EAA1BBB1BFD010DC0F4
:10092000AA1FBB1FEE1FFF1FA217B307E407F5079F
:1009300020F0A21BB30BE40BF50B661F771F881F7B
:10094000991F1A9469F760957095809590959B0111
:10095000AC01BD01CF010895EE0FFF1F0024001C64
:100960000BBE0790F691E02D09940F931F93CF9340
:10097000DF938230910510F482E090E0E0911F0156
:10098000F091200120E030E0A0E0B0E0309719F1D4
:10099000408151810281138148175907C8F084179B
:1009A000950769F4109731F012960C9312971396ED
:1009B0001C9327C000931F011093200122C0211512
:1009C000310519F04217530718F49A01BD01EF01E0
:1009D000DF01F801DBCF21153105F9F0281B390BB8
:1009E0002430310580F48A819B816115710521F0E5
:1009F000FB019383828304C09093200180931F01A5
:100A0000FE01329644C0FE01E20FF31F81939193E1
:100A100022503109398328833AC020911D01309139
:100A20001E01232B41F420911401309115013093C4
:100A30001E0120931D0120911201309113012115F7
:100A4000310541F42DB73EB7409116015091170181
:100A5000241B350BE0911D01F0911E01E217F307F5
:100A6000A0F42E1B3F0B2817390778F0AC014E5F1E
:100A70005F4F2417350748F04E0F5F1F50931E013C
:100A800040931D018193919302C0E0E0F0E0CF011B
:100A9000DF91CF911F910F910895CF93DF9300972E
:100AA00009F481C0FC01329713821282A0911F01C8
:100AB000B0912001109781F420813181820F931F22
:100AC00020911D0130911E012817390751F5F0932F
:100AD0001E01E0931D0167C0ED0120E030E0CE175C
:100AE000DF0740F44A815B819E0141155105F1F019
:100AF000EA01F5CFD383C28340815181840F951FD2
:100B0000C817D90759F488819981840F951F0296D7
:100B1000918380838A819B81938382832115310510
:100B200029F4F0932001E0931F013DC0E901FB830C
:100B3000EA8349915991C40FD51FEC17FD0761F461
:100B400080819181840F951F0296E90199838883A2
:100B5000828193819B838A83E0E0F0E012968D91FD
:100B60009C911397009719F0FD01DC01F7CF8D914F
:100B70009C9111979D012E5F3F4F820F931F2091F3
:100B80001D0130911E012817390769F4309729F4A7
:100B90001092200110921F0102C013821282B093A2
:100BA0001E01A0931D01DF91CF910895F894FFCF0E
:100BB000010000000000000200000000DF00000053
:080BC0000000000021012000EB
:00000001FF
