:100000000C948B000C94AA000C94AA000C94AA00E7
:100010000C94AA000C94AA000C94AA000C94AA00B8
:100020000C94AA000C94AA000C94AA000C94AA00A8
:100030000C94AA000C94E5020C94AA000C94AA005B
:100040000C94AA000C94AA000C94AA000C94AA0088
:100050000C94AA000C94AA000C94AA000C94AA0078
:100060000C94AA000C94AA000C94AA000C94AA0068
:100070000C94AA000C94AA000C94AA000C94AA0058
:100080000C94AA000C94AA000C94AA006002A3028B
:10009000A302A302A302A302A302A302A302A30238
:1000A000A302A302A302A302A302A302A302A30228
:1000B000A302A302A302A302A302A302A302A30218
:1000C000A302A302A302A302A302A302A302A30208
:1000D000A3029F02A302A302A302A302A302A302FC
:1000E0009702A302A302A302A302A3029B0263023C
:1000F00067026B026F02730277027B027F02830248
:10010000A302A302A302A302A302A302A3028702E3
:100110008B028F02930211241FBECFEFD0E4DEBF0B
:10012000CDBF11E0A0E0B1E0E0EDF8E000E00BBFF2
:1001300002C007900D92A232B107D9F721E0A2E2E6
:10014000B1E001C01D92A234B207E1F70E94610341
:100150000C9466040C94000040E050E00CC00000D9
:100160002F5F3F4F02C020E030E0273063E03607CA
:10017000B4F34F5F5F4F48175907ACF3089595B13B
:100180009F7B95B98BB985B1806885B9000085B131
:100190008F7785B982E090E00E94AC00089581E0FD
:1001A0000E94BF000895813120F481580E94BF0051
:1001B000089581550E94BF00089584E690E00E9452
:1001C000AC0088E30E94BF0086E00E94BF008FE081
:1001D0000E94BF0081E00E94BF008AE090E00E9480
:1001E000AC00089595B1906495B98BB985B18068DC
:1001F00085B9000085B18F7785B981E090E00E94D4
:10020000AC000895EF92FF920F931F93CF93DF936B
:10021000182FEB010E94CF000EC001E0010F812FCB
:100220000E94D3007E018FEFE81AF80A88810E94AD
:10023000F200102FE70188818111EFCFDF91CF917C
:100240001F910F91FF90EF900895CF93C82F8A30A0
:1002500019F48DE00E9425018091C00085FFFCCF3C
:10026000C093C60080E090E0CF910895CF93DF93D4
:10027000EC01009719F0019731F011C08091230132
:10028000811110C011C08091230181110DC0809196
:1002900040018F5F80934001C0E0D0E005C0C0E026
:1002A000D0E002C0C1E0D0E0209721F0C130D105FC
:1002B000E1F02AC081E08093220112C00E94D300A5
:1002C000E0912201F0E0E150FF4F8081082E000C08
:1002D000990B0E94F200809122018F5F809322018E
:1002E00080912201813150F30FC0E0914001EF78FD
:1002F0001CF4E150E06FEF5F0E2E000CFF0BE0509E
:10030000FF4F809123018083CE01DF91CF9108952B
:10031000442349F021E030E002C0220F331F6A95E8
:10032000E2F7822B089521E030E002C0220F331F54
:100330006A95E2F720958223089521E030E002C01B
:10034000220F331F6A95E2F78223089540E064E0AC
:100350008FEF0E94880188B9000086B160E0809527
:100360000E949D01811180C086B161E080950E944C
:100370009D0181117BC086B162E080950E949D0144
:10038000811176C086B163E080950E949D01811144
:1003900071C040E065E08FEF0E94880188B90000DD
:1003A00086B160E080950E949D01811165C086B193
:1003B00061E080950E949D01811160C086B162E07C
:1003C00080950E949D0181115BC086B163E080959C
:1003D0000E949D01811156C040E066E08FEF0E94AF
:1003E000880188B9000086B160E080950E949D0177
:1003F00081114AC086B161E080950E949D01811102
:1004000045C086B162E080950E949D01811140C087
:1004100086B163E080950E949D0181113BC040E060
:1004200067E08FEF0E94880188B9000086B160E024
:1004300080950E949D0181112FC086B161E0809559
:100440000E949D0181112AC086B162E080950E94C0
:100450009D01811125C086B163E080950E949D01B8
:100460008823F9F084E4089581E3089584E30895EE
:1004700087E308958AE2089582E3089585E3089565
:1004800088E3089580E3089583E3089586E308955B
:1004900089E3089583E2089581E4089582E408954C
:1004A00083E408950E94A6018093240190E085349E
:1004B000910508F048C0FC01EA5BFF4F0C945D0415
:1004C0001092230143C081E3809323013FC082E364
:1004D000809323013BC083E38093230137C084E3EF
:1004E0008093230133C085E3809323012FC086E3EB
:1004F000809323012BC087E38093230127C088E3E7
:100500008093230123C089E3809323011FC081E4EA
:10051000809323011BC082E48093230117C083E4EE
:100520008093230113C084E4809323010FC08AE2E7
:10053000809323010BC080E38093230107C083E2F3
:100540008093230103C08BE18093230180E090E03E
:10055000089560931001709311018093120190939C
:1005600013016093250170932601809327019093D6
:10057000280108958BE0809381008DE790E09093AF
:1005800089008093880082E080936F00109285003C
:10059000109284008091100190911101A09112019C
:1005A000B09113018093250190932601A093270118
:1005B000B09328018FB780688FBF08951092810093
:1005C000089581E08093290108951F920F920FB63C
:1005D0000F9211240BB60F922F933F934F935F937B
:1005E0006F937F938F939F93AF93BF93EF93FF93FB
:1005F0008091250190912601A0912701B0912801B9
:100600000197A109B1098093250190932601A09338
:100610002701B0932801892B8A2B8B2B91F40E9400
:10062000E1028091100190911101A0911201B0910D
:1006300013018093250190932601A0932701B09385
:100640002801FF91EF91BF91AF919F918F917F9181
:100650006F915F914F913F912F910F900BBE0F9033
:100660000FBE0F901F9018950F931F93CF93DF939A
:10067000B62FA72FF82FE92F022F132FD42FC52F16
:1006800004C0062F172FD82FC92F6B2F7A2F8F2F2B
:100690009E2F202F312F4D2F5C2F0E943B04B02F17
:1006A000A12FFD2FEC2F611571058105910549F7EB
:1006B000602F712F8D2F9C2FDF91CF911F910F9164
:1006C0000895CF93DF9300D000D0CDB7DEB711B837
:1006D0008FEF82B984B915B890EF97B99FE098B9B8
:1006E0008AB91BB80E94DD00A5E3B1E0BA83A983F3
:1006F000EAE2F1E0FC83EB831C924AEF50E060E019
:1007000070E011964D935D936D937C9314971596BD
:100710004D935D936D937C93189786E391E01A96C1
:100720009C938E93199710828AE090E0A0E0B0E04D
:1007300081839283A383B48385839683A783B087C1
:1007400082E592E09287818781E0809341010F2EBC
:10075000FAEFCF2ED12CE12CF12CF02D1AC0E12F85
:10076000F0E0EE0FFF1F21E030E02C0F3D1FE20F05
:10077000F31F0190F081E02D21813281438154816A
:10078000C701B6010E9434036B017C011F5F109307
:10079000410110914101123010F3C701B6010E94CE
:1007A000A9020E94BA021092410159C0F0E0EE0F76
:1007B000FF1F81E090E08C0F9D1FE80FF91F008163
:1007C0001181D80115964D915D916D917C9118978D
:1007D00011968D919D910D90BC91A02D48175907B0
:1007E0006A077B07F1F4D8011996ED91FC911A97ED
:1007F0008C91082E000C990B0995F8018083E091EB
:100800004101F0E0EE0FFF1F21E030E02C0F3D1F13
:10081000E20FF31F0190F081E02D158216821782FE
:10082000108680914101E82FF0E0EE0FFF1FA1E05C
:10083000B0E0AC0FBD1FEA0FFB1F0190F081E02D6F
:1008400045815681678170854C0D5D1D6E1D7F1D34
:1008500045835683678370878F5F80934101E09162
:100860004101E23008F4A2CF809129018823E1F30D
:100870001092290198CFA1E21A2EAA1BBB1BFD01E1
:100880000DC0AA1FBB1FEE1FFF1FA217B307E4076F
:10089000F50720F0A21BB30BE40BF50B661F771FC7
:1008A000881F991F1A9469F76095709580959095A7
:1008B0009B01AC01BD01CF010895EE0FFF1F002485
:1008C000001C0BBE0790F691E02D0994F894FFCF21
:1008D000436F6E67726174756C6174696F6E7321BA
:1008E00001000000000000020000000025010000DF
:0208F000000006
:00000001FF
