:100000000C9446000C945D000C945D000C945D0013
:100010000C945D000C945D000C945D000C945D00EC
:100020000C945D000C945D000C945D000C945D00DC
:100030000C945D000C945D000C945D000C945D00CC
:100040000C945D000C945D000C945D000C945D00BC
:100050000C945D000C945D000C945D000C945D00AC
:100060000C945D000C945D000C945D000C945D009C
:100070000C945D000C945D000C945D000C945D008C
:100080000C945D000C945D000C945D0011241FBE67
:10009000CFEFD0E4DEBFCDBF11E0A0E0B1E0E2E8F9
:1000A000F1E000E00BBF02C007900D92AE30B10747
:1000B000D9F70E9476000C94BF000C940000CF93F7
:1000C000C82F8A3019F48DE00E945F008091C00033
:1000D00085FFFCCFC093C60080E090E0CF910895EB
:1000E000EAE7F0E08081806E8083089511B88FEF99
:1000F00082B984B915B88AB91BB80E947000809182
:100100007800909179008091780090917900803208
:10011000910518F08F33910518F18034910518F08E
:100120008F359105F8F08036910518F08F379105DD
:10013000D8F08038910518F08F399105B8F0803AE1
:10014000910518F08F3B910598F0803C910518F0CF
:100150008F3D910578F0803E910570F08FEF0DC0D6
:1001600083E00BC087E009C08FE007C08FE105C0C6
:100170008FE303C08FE701C081E085B9C4CFF89455
:02018000FFCFAF
:0E01820000000002000000005F00000000000E
:00000001FF
