:100000000C9446000C945D000C945D000C945D0013
:100010000C945D000C945D000C945D000C945D00EC
:100020000C945D000C945D000C945D000C945D00DC
:100030000C945D000C945D000C945D000C945D00CC
:100040000C945D000C945D000C945D000C945D00BC
:100050000C945D000C945D000C945D000C945D00AC
:100060000C945D000C945D000C945D000C945D009C
:100070000C945D000C945D000C945D000C945D008C
:100080000C945D000C945D000C945D0011241FBE67
:10009000CFEFD0E4DEBFCDBF11E0A0E0B1E0E4E9F6
:1000A000F1E000E00BBF02C007900D92AE30B10747
:1000B000D9F70E9476000C94C8000C940000CF93EE
:1000C000C82F8A3019F48DE00E945F008091C00033
:1000D00085FFFCCFC093C60080E090E0CF910895EB
:1000E000EAE7F0E08081806E8083089511B88FEF99
:1000F00082B984B915B88AB91BB80E947000809182
:100100007800909179008091780090917900803604
:10011000910518F08F3B910560F1803C910520F02E
:100120008F3121E0920738F1803221E0920720F0F0
:100130008F3721E0920708F1803821E0920720F004
:100140008F3D21E09207D8F0803E21E0920720F019
:100150008F3322E09207A8F0803422E0920720F04B
:100160008F3922E0920778F0803A924070F08FEF5A
:100170000DC083E00BC087E009C08FE007C08FE1AE
:1001800005C08FE303C08FE701C081E085B9BBCF15
:04019000F894FFCF11
:0E01940000000002000000005F0000000000FC
:00000001FF
