:100000000C9446000C9465000C9465000C946500FB
:100010000C9465000C9465000C9465000C946500CC
:100020000C9465000C9465000C9465000C946500BC
:100030000C9465000C94B4000C9465000C9465005D
:100040000C9465000C9465000C9465000C9465009C
:100050000C9465000C9465000C9465000C9465008C
:100060000C9465000C9465000C9465000C9465007C
:100070000C9465000C9465000C9465000C9465006C
:100080000C9465000C9465000C94650011241FBE4F
:10009000CFEFD0E4DEBFCDBF11E0A0E0B1E0E4EEF1
:1000A000F2E000E00BBF02C007900D92A231B10751
:1000B000D9F721E0A2E1B1E001C01D92AC31B20755
:1000C000E1F70E9450010C9470010C940000CF9352
:1000D000C82F8A3019F48DE00E9467008091C0001B
:1000E00085FFFCCFC093C60080E090E0CF910895DB
:1000F00060930001709301018093020190930301CA
:100100006093120170931301809314019093150171
:1001100008958BE0809381008DE790E090938900B3
:100120008093880082E080936F0010928500109287
:1001300084008091000190910101A0910201B09191
:1001400003018093120190931301A0931401B093C3
:1001500015018FB780688FBF0895109281000895B0
:1001600081E08093160108951F920F920FB60F92AF
:1001700011240BB60F922F933F934F935F936F937E
:100180007F938F939F93AF93BF93EF93FF93809150
:10019000120190911301A0911401B09115010197E2
:1001A000A109B1098093120190931301A093140146
:1001B000B0931501892B8A2B8B2B91F40E94B000F0
:1001C0008091000190910101A0910201B091030181
:1001D0008093120190931301A0931401B093150121
:1001E000FF91EF91BF91AF919F918F917F916F910F
:1001F0005F914F913F912F910F900BBE0F900FBECB
:100200000F901F90189580911701909118010097F9
:1002100019F0019769F008C081E090E0909318010F
:100220008093170115B804C010921801109217019D
:100230008091170190911801009721F0813091056C
:1002400019F0089515B808958091190185B9089598
:1002500080911A0190911B01009719F0019771F09C
:1002600009C081E090E090931B0180931A011092E5
:10027000190104C010921B0110921A0180911A01F9
:1002800090911B01009721F08130910521F0089594
:1002900010921901089580B18095809319010895F5
:1002A00011B88FEF82B984B915B864E670E080E0C8
:1002B00090E00E9478000E9489001092180110922C
:1002C000170110921B0110921A010E9428010E942E
:1002D0000301809116018823E1F310921601F5CFF6
:0402E000F894FFCFC0
:1002E40001000000000000020000000067000000A0
:0202F400000008
:00000001FF
