:100000000C944F000C946E000C946E000C946E00D7
:100010000C946E000C946E000C946E000C946E00A8
:100020000C946E000C946E000C946E000C946E0098
:100030000C946E000C94BD000C946E000C946E0039
:100040000C946E000C946E000C946E000C946E0078
:100050000C946E000C946E000C946E000C946E0068
:100060000C946E000C946E000C946E000C946E0058
:100070000C946E000C946E000C946E000C946E0048
:100080000C946E000C946E000C946E0030028C0286
:100090000603C9024303AA02E702610324031124F1
:1000A0001FBECFEFD0E4DEBFCDBF11E0A0E0B1E0D6
:1000B000EEECF7E000E00BBF02C007900D92A2311A
:1000C000B107D9F721E0A2E1B1E001C01D92AC3245
:1000D000B207E1F70E94AA030C94E5030C94000018
:1000E000CF93C82F8A3019F48DE00E947000809160
:1000F000C00085FFFCCFC093C60080E090E0CF91A8
:100100000895609300017093010180930201909320
:100110000301609312017093130180931401909373
:10012000150108958BE0809381008DE790E0909316
:1001300089008093880082E080936F001092850090
:10014000109284008091000190910101A091020120
:10015000B09103018093120190931301A0931401B5
:10016000B09315018FB780688FBF089510928100FA
:10017000089581E08093160108951F920F920FB6A3
:100180000F9211240BB60F922F933F934F935F93CF
:100190006F937F938F939F93AF93BF93EF93FF934F
:1001A0008091120190911301A0911401B091150159
:1001B0000197A109B1098093120190931301A093B3
:1001C0001401B0931501892B8A2B8B2B91F40E947B
:1001D000B9008091000190910101A0910201B091BC
:1001E00003018093120190931301A0931401B09323
:1001F0001501FF91EF91BF91AF919F918F917F91E9
:100200006F915F914F913F912F910F900BBE0F9087
:100210000FBE0F901F90189580912301909124019B
:100220008130910579F018F0029751F147C081E0D3
:1002300090E0909324018093230110921B0110926F
:100240001A0144C080911A0190911B0118161906D9
:1002500064F021E030E030932401209323010196E3
:1002600090931B0180931A0131C082E090E090933B
:1002700024018093230110921B0110921A0126C0C1
:1002800080911A0190911B018930910564F422E05C
:1002900030E03093240120932301019690931B01B9
:1002A00080931A0113C081E090E090932401809321
:1002B000230110921B0110921A0108C01092240110
:1002C0001092230110921B0110921A0180912301B8
:1002D000909124018130910519F0029729F0089539
:1002E00081E080931E01089510921E01089580916F
:1002F00027019091280181309105D1F018F00297E3
:10030000F1F048C080B1887F8093200110921901DC
:1003100010921801811105C0109228011092270136
:1003200041C081E090E090932801809327013AC07A
:1003300082E090E0909328018093270133C0809160
:100340001801909119018A30910554F420912001EF
:10035000211106C00196909319018093180122C0C3
:100360000A976CF080912001811109C01092280138
:1003700010922701109219011092180113C01092C7
:1003800019011092180182E090E090932801809367
:10039000270108C01092280110922701109219011C
:1003A00010921801809127019091280181309105C8
:1003B00039F018F0029751F007C010922201089509
:1003C00082E0809322010895109222010895809185
:1003D000290190912A01009719F0019789F020C016
:1003E00080912201811105C010922A0110922901E9
:1003F0001BC081E090E090932A018093290114C0F2
:1004000080912201811105C010922A0110922901C8
:100410000BC081E090E090932A018093290104C0F1
:1004200010922A01109229018091290190912A01AC
:10043000892B19F410921F01089510921F0108953D
:1004400080B1877080932B01E0912501F091260106
:10045000E930F10508F053C1EA5BFF4F0C94DC036F
:10046000811109C081E090E09093260180932501DD
:10047000809317010895813051F485E090E09093C6
:1004800026018093250182E0809317010895823030
:1004900049F483E090E090932601809325018093B6
:1004A00017010895833051F486E090E0909326017F
:1004B0008093250184E0809317010895843051F4DE
:1004C00082E090E0909326018093250185E080935F
:1004D00017010895853051F488E090E0909326014B
:1004E0008093250186E0809317010895863051F4AA
:1004F00084E090E0909326018093250187E080932B
:100500001701089587E090E09093260180932501DC
:1005100088E0809317010895843089F48091170151
:10052000813069F482E090E0909326018093250168
:1005300085E08093170184E080932101089581E094
:1005400090E09093260180932501809317011092EB
:1005500021010895853089F480911701823069F472
:1005600088E090E0909326018093250186E08093B7
:10057000170184E080932101089585E090E0909335
:1005800026018093250182E08093170110922101BA
:100590000895863089F480911701833069F484E0EE
:1005A00090E0909326018093250187E080931701C6
:1005B00084E080932101089583E090E090932601E8
:1005C00080932501809317011092210108958730AF
:1005D00089F480911701843069F487E090E090936A
:1005E00026018093250188E08093170184E08093A1
:1005F0002101089586E090E09093260180932501E3
:1006000084E080931701109221010895811110C098
:1006100080911701853061F481E090E0909326018C
:10062000809325018093170184E080932101089530
:1006300082E090E0909326018093250185E08093ED
:100640001701109221010895813089F480911701DA
:10065000863069F485E090E090932601809325012F
:1006600082E08093170184E080932101089588E05F
:1006700090E0909326018093250186E080931701F6
:10068000109221010895823081F480911701873002
:1006900061F483E090E0909326018093250180939C
:1006A000170184E080932101089584E090E0909305
:1006B00026018093250187E0809317011092210184
:1006C0000895833081F480911701883061F486E0C9
:1006D00090E0909326018093250184E08093170198
:1006E00080932101089587E090E090932601809304
:1006F000250188E08093170110922101089510923E
:1007000026011092250110922101109217010895DF
:1007100080911C0190911D01892B29F410921D01DB
:1007200010921C0104C010921D0110921C018091B6
:100730001C0190911D01892B61F490911E01809103
:100740002201892B90912101892B90911F01892BE6
:1007500085B9089511B88FEF82B984B915B864E6E8
:1007600070E080E090E00E9481000E949200109270
:100770002401109223011092280110922701109257
:100780002A0110922901109226011092250110923F
:100790001D0110921C010E940C010E9477010E9411
:1007A000E7010E9420020E9488038091160188239D
:1007B000E1F310921601EFCFEE0FFF1F0024001C93
:0E07C0000BBE0790F691E02D0994F894FFCF40
:1007CE0001000000000000020000000070000000A8
:0207DE00000019
:00000001FF
