:100000000C9446000C9465000C9465000C946500FB
:100010000C9465000C9465000C9465000C946500CC
:100020000C9465000C9465000C9465000C946500BC
:100030000C9465000C941C010C9465000C946500F4
:100040000C9465000C9465000C9465000C9465009C
:100050000C9465000C9465000C9465000C9465008C
:100060000C9465000C9465000C9465000C9465007C
:100070000C9465000C9465000C9465000C9465006C
:100080000C9465000C9465000C94650011241FBE4F
:10009000CFEFD0E4DEBFCDBF11E0A0E0B1E0E0E4FF
:1000A000F5E000E00BBF02C007900D92AC31B10744
:1000B000D9F721E0ACE1B1E001C01D92A832B2074E
:1000C000E1F70E9457020C949E020C94000040E05D
:1000D00050E00CC000002F5F3F4F02C020E030E036
:1000E000273063E03607B4F34F5F5F4F4817590777
:1000F000ACF308959BB19F7B9BB988B98BB18068A5
:100100008BB900008BB18F778BB982E090E00E94B1
:100110006700089581E00E947A000895813120F4FB
:1001200081580E947A00089581550E947A000895AE
:1001300084E690E00E94670088E30E947A0086E0EF
:100140000E947A008FE00E947A0081E00E947A008B
:100150008AE090E00E94670008959BB190649BB98B
:1001600088B98BB180688BB900008BB18F778BB960
:1001700081E090E00E9467000895EF92FF920F9354
:100180001F93CF93DF93182FEB010E948A000EC0BC
:1001900001E0010F812F0E948E007E018FEFE81A8F
:1001A000F80A88810E94AD00102FE7018881811133
:1001B000EFCFDF91CF911F910F91FF90EF900895B6
:1001C000CF93C82F8A3019F48DE00E94E00080910F
:1001D000C00085FFFCCFC093C60080E090E0CF91C7
:1001E00008958BE0809381008DE790E090938900E3
:1001F0008093880082E080936F00109285001092B7
:1002000084008091000190910101A0910201B091C0
:10021000030180931C0190931D01A0931E01B093D4
:100220001F018FB780688FBF0895109281000895D5
:1002300081E08093200108951F920F920FB60F92D4
:1002400011240BB60F922F933F934F935F936F93AD
:100250007F938F939F93AF93BF93EF93FF9380917F
:100260001C0190911D01A0911E01B0911F010197E9
:10027000A109B10980931C0190931D01A0931E0157
:10028000B0931F01892B8A2B8B2B91F40E941801AC
:100290008091000190910101A0910201B0910301B0
:1002A00080931C0190931D01A0931E01B0931F0128
:1002B000FF91EF91BF91AF919F918F917F916F913E
:1002C0005F914F913F912F910F900BBE0F900FBEFA
:1002D0000F901F9018956093000170930101809317
:1002E00002019093030160931C0170931D018093A0
:1002F0001E0190931F010895809122019091230186
:100300008230910589F128F4009769F0019791F006
:1003100095C08430910509F479C008F45DC0059753
:1003200009F47FC08BC081E090E09093230180931B
:1003300022018AC080912701813059F490912601D1
:10034000911107C084E090E09093230180932201F3
:100350007BC0811102C01092260182E090E0909350
:1003600023018093220170C080912701813099F48C
:100370009091260191110FC084E090E090932301A9
:100380008093220180912401893008F05DC08F5F45
:100390008093240159C090912501913059F4811125
:1003A00002C01092260183E090E090932301809395
:1003B00022010AC0811102C01092260181E090E062
:1003C0009093230180932201809124018823E1F1FD
:1003D00081508093240138C080912701813059F4E5
:1003E00090912601911107C084E090E09093230141
:1003F0008093220129C0811102C01092260182E05F
:1004000090E090932301809322011EC080912701E8
:1004100081111AC085E090E090932301809322011E
:1004200013C080912701813079F481E090E09093AE
:100430002301809322018093260106C081E090E091
:1004400090932301809322018091220190912301B6
:1004500082309105D9F028F4009749F0019781F096
:100460001FC083309105B1F0069700F119C081E0FB
:10047000809321011092250185E080932401089545
:1004800081E08093210180932501089582E080938B
:100490002101089584E0809321011092250108959F
:1004A00081E08093210185E080932401089511B8B3
:1004B0008FEF82B984B915B887B918B88AB91BB853
:1004C0006CE271E080E090E00E946B010E94F1001C
:1004D000109221011092270185E08093240110924F
:1004E0002301109222010E94980090B181E0892797
:1004F0008170809327010E947C01809120018823D4
:10050000E1F3109220018091210185B980912401AD
:10051000893041F40E948A0062E171E081E00E942A
:10052000BD00E3CF0E948A0081E00E948E0080918E
:10053000240190E0C0960E94AD00D7CFF894FFCF81
:10054000010000000000000200000000E0000000C8
:0C0550000000596F752057696E210000F3
:00000001FF
