:100000000C9446000C9465000C9465000C946500FB
:100010000C9465000C9465000C9465000C946500CC
:100020000C9465000C9465000C9465000C946500BC
:100030000C9465000C94A3000C9465000C9465006E
:100040000C9465000C9465000C9465000C9465009C
:100050000C9465000C9465000C9465000C9465008C
:100060000C9465000C9465000C9465000C9465007C
:100070000C9465000C9465000C9465000C9465006C
:100080000C9465000C9465000C94650011241FBE4F
:10009000CFEFD0E4DEBFCDBF11E0A0E0B1E0E2E4FD
:1000A000F8E000E00BBF02C007900D92AC39B10739
:1000B000D9F721E0ACE9B1E001C01D92AA3AB2073C
:1000C000E1F70E9465020C941F040C940000CF938A
:1000D000C82F8A3019F48DE00E9467008091C0001B
:1000E00085FFFCCFC093C60080E090E0CF910895DB
:1000F0008BE0809381008DE790E09093890080935E
:10010000880082E080936F00109285001092840036
:1001100080918A0190918B01A0918C01B0918D0109
:1001200080939C0190939D01A0939E01B0939F01A9
:100130008FB780688FBF089510928100089581E085
:100140008093A00108951F920F920FB60F92112471
:100150000BB60F922F933F934F935F936F937F93C1
:100160008F939F93AF93BF93EF93FF9380919C01E5
:1001700090919D01A0919E01B0919F010197A109CD
:10018000B10980939C0190939D01A0939E01B0932F
:100190009F01892B8A2B8B2B91F40E949F008091C9
:1001A0008A0190918B01A0918C01B0918D01809377
:1001B0009C0190939D01A0939E01B0939F01FF919C
:1001C000EF91BF91AF919F918F917F916F915F91CF
:1001D0004F913F912F910F900BBE0F900FBE0F903C
:1001E0001F90189560938A0170938B0180938C0106
:1001F00090938D0160939C0170939D0180939E016B
:1002000090939F010895CF92DF92EF92FF926B013E
:100210007C016091A1017091A2018091A301909154
:10022000A401A70196010E948B02882309F458C0FB
:1002300020E030E0A901C701B6010E948B028111C4
:1002400006C0E1E9F0E080818870808305C0E1E9C3
:10025000F0E080818360808328E539E344E75FE351
:10026000C701B6010E948B0288233CF48FEF9FEFF9
:10027000909399008093980027C020E034E244EFE7
:1002800056E4C701B6010E94AD0318162CF4109273
:1002900099001092980018C020E030E040E053E44C
:1002A000C701B6010E94B2039B01AC0160E074E299
:1002B00084EF9AE40E9490020E9402036150710947
:1002C000709399006093980010929500109294009A
:1002D000C092A101D092A201E092A301F092A401E8
:1002E000FF90EF90DF90CF90089580E4809390008E
:1002F0008BE08093910060E070E0CB010E940301ED
:100300000895109290001092910008958091A60196
:100310009091A7018230910539F128F4009759F0A6
:10032000019781F091C08330910509F45CC0049776
:1003300009F478C089C081E090E09093A701809390
:10034000A60188C08091A901813039F482E090E053
:100350009093A7018093A6017DC081E090E09093E7
:10036000A7018093A60176C08091A801873148F546
:1003700090E0FC01E95EFE4F30812091A50123173A
:10038000B8F442E050E05093A7014093A6012F5FDC
:100390002093A501880F991F880F991FFC01E25D2A
:1003A000FE4F60817181828193810E94030152C05E
:1003B00083E090E09093A7018093A6011092A5019D
:1003C00049C08091A901813039F484E090E0909394
:1003D000A7018093A6013EC081E090E09093A70121
:1003E0008093A60137C08091A801E82FF0E0E0508B
:1003F000FF4F20819091A501921750F423E030E047
:100400003093A7012093A6019F5F9093A50122C07E
:1004100022E030E03093A7012093A6018F5F809304
:10042000A80118C08091A901813039F484E090E0DE
:100430009093A7018093A6010DC081E090E0909376
:10044000A7018093A60106C081E090E09093A701E8
:100450008093A6018091A6019091A7018230910519
:10046000C9F028F4009749F0019769F02BC0833058
:10047000910511F1049719F125C060E070E0CB01FE
:100480000E94030108950E9481011092A801109218
:10049000A50108950E947501E091A801F0E0EE0F1A
:1004A000FF1FEE0FFF1FE25DFE4F608171818281B1
:1004B00093810E94030108950E94810108950E9482
:1004C000810108950E94810108958FEF84B915B8C4
:1004D00011B882B964E670E080E090E00E94F2001A
:1004E0000E9478001092A9011092A8011092A50113
:1004F0001092A7011092A60190B181E08927817026
:100500008093A9010E9486018091A0018823E1F3D4
:100510001092A001F1CF0E94380308F481E0089501
:100520000E94A4020C9473030E946C0358F00E9472
:10053000650340F029F45F3F29F00C945C035111EE
:100540000C94A7030C9462030E94840368F399231C
:10055000B1F3552391F3951B550BBB27AA276217BF
:100560007307840738F09F5F5F4F220F331F441FCC
:10057000AA1FA9F335D00E2E3AF0E0E832D0915000
:100580005040E695001CCAF72BD0FE2F29D0660FED
:10059000771F881FBB1F261737074807AB07B0E830
:1005A00009F0BB0B802DBF01FF2793585F4F3AF036
:1005B0009E3F510578F00C945C030C94A7035F3FB9
:1005C000E4F3983ED4F3869577956795B795F795BC
:1005D0009F5FC9F7880F911D9695879597F90895A4
:1005E000E1E0660F771F881FBB1F62177307840740
:1005F000BA0720F0621B730B840BBA0BEE1F88F74F
:10060000E09508950E9409036894B1110C94A70322
:1006100008950E948C0388F09F5798F0B92F99276E
:10062000B751B0F0E1F0660F771F881F991F1AF0DD
:10063000BA95C9F714C0B13091F00E94A603B1E099
:1006400008950C94A603672F782F8827B85F39F098
:10065000B93FCCF3869577956795B395D9F73EF476
:1006600090958095709561957F4F8F4F9F4F08951E
:10067000990F0008550FAA0BE0E8FEEF16161706B3
:10068000E807F907C0F012161306E407F50798F01B
:10069000621B730B840B950B39F40A2661F0232B34
:1006A000242B252B21F408950A2609F4A140A695B0
:1006B0008FEF811D811D089597F99F6780E870E095
:1006C00060E008959FEF80EC089500240A941616C8
:1006D000170618060906089500240A941216130630
:1006E000140605060895092E0394000C11F48823BE
:1006F00052F0BB0F40F4BF2B11F460FF04C06F5FDA
:100700007F4F8F4F9F4F089557FD9058440F551FAF
:1007100059F05F3F71F04795880F97FB991F61F083
:100720009F3F79F087950895121613061406551FFA
:10073000F2CF4695F1DF08C0161617061806991F66
:10074000F1CF86957105610508940895E894BB275B
:1007500066277727CB0197F908950E94380308F49C
:100760008FEF08950E94C5030C9473030E946503E4
:1007700038F00E946C0320F0952311F00C945C0378
:100780000C94620311240C94A7030E94840370F359
:10079000959FC1F3950F50E0551F629FF001729F26
:1007A000BB27F00DB11D639FAA27F00DB11DAA1F35
:1007B000649F6627B00DA11D661F829F2227B00D82
:1007C000A11D621F739FB00DA11D621F839FA00D0D
:1007D000611D221F749F3327A00D611D231F849F5D
:1007E000600D211D822F762F6A2F11249F575040B4
:1007F0009AF0F1F088234AF0EE0FFF1FBB1F661F2F
:10080000771F881F91505040A9F79E3F510580F0F7
:100810000C945C030C94A7035F3FE4F3983ED4F37D
:10082000869577956795B795F795E7959F5FC1F79B
:10083000FE2B880F911D9695879597F90895F8944A
:02084000FFCFE8
:100842000101010101010101010101010201010195
:10085200010101010101030301010301010103017E
:100862000101010301010101010101010303A4D0FE
:1008720082430000C443A4D0A443A4D0A4437BD4A5
:100882009243A4D08243A4D08243719DAE43A4D0AC
:10089200A443A4D0A4437BD492437BD49243A4D058
:1008A2008243A4D082430000C443A4D0A443A4D072
:1008B200A4437BD492437BD49243A4D08243A4D05A
:1008C20082430000DC430000C4430100000000003A
:0C08D200000200000000670000000000B1
:00000001FF
