:100000000C9454000C9473000C9473000C947300C3
:100010000C9473000C9473000C9473000C94730094
:100020000C9473000C9473000C9473000C94730084
:100030000C9473000C9473000C9473000C94730074
:100040000C9473000C9473000C9473000C94730064
:100050000C9473000C9473000C9473000C94730054
:100060000C9473000C9473000C9473000C94730044
:100070000C9473000C9473000C9473000C94730034
:100080000C9473000C9473000C94730015013001F0
:1000900066011E01420178018A01B00117021702B0
:1000A000BF01C501D901F70111241FBECFEFD0E474
:1000B000DEBFCDBF11E0A0E0B1E0E0EAF7E000E094
:1000C0000BBF02C007900D92AE32B107D9F721E005
:1000D000AEE2B1E001C01D92A733B207E1F70E9482
:1000E00018020C94CE030C940000CF93C82F8A30D2
:1000F00019F48DE00E9475008091C00085FFFCCF4F
:10010000C093C60080E090E0CF910895CF92DF9237
:10011000EF92FF926B017C0160912E0170912F0193
:100120008091300190913101A70196010E943A021D
:10013000882309F458C020E030E0A901C701B601C6
:100140000E943A02811106C0E1E9F0E080818870E6
:10015000808305C0E1E9F0E080818360808328E549
:1001600039E344E75FE3C701B6010E943A028823FE
:100170003CF48FEF9FEF909399008093980027C0F5
:1001800020E034E244EF56E4C701B6010E945C036C
:1001900018162CF4109299001092980018C020E0C4
:1001A00030E040E053E4C701B6010E9461039B01C7
:1001B000AC0160E074E284EF9AE40E943F020E9486
:1001C000B102615071097093990060939800109288
:1001D000950010929400C0922E01D0922F01E092CF
:1001E0003001F0923101FF90EF90DF90CF900895B1
:1001F00080E4809390008BE08093910060E070E059
:10020000CB010E94860008951092900010929100F8
:100210000895E0913201F0913301E730F10508F0E3
:100220008BC0EA5BFF4F0C9431021092350183E0E2
:1002300090E0909333018093320186C08091360123
:10024000813039F481E090E0909333018093320162
:100250007BC083E090E0909333018093320174C0BF
:1002600080913601813039F481E090E09093330140
:100270008093320169C084E090E0909333018093D1
:10028000320162C080913601813039F482E090E021
:10029000909333018093320157C0823039F485E066
:1002A00090E090933301809332014EC0843039F452
:1002B00086E090E0909333018093320145C084E062
:1002C00090E090933301809332013EC080913601DB
:1002D000813039F482E090E09093330180933201D1
:1002E00033C083E090E090933301809332012CC0BF
:1002F00080913601823039F485E090E090933301AB
:100300008093320121C084E090E090933301809388
:1003100032011AC080913601843039F486E090E0D1
:1003200090933301809332010FC084E090E090936A
:1003300033018093320108C01092350183E090E0D0
:100340009093330180933201E0913201F0913301B7
:10035000E730F10508F069C0E35BFF4F0C94310210
:10036000109235010E94F800609100017091010126
:1003700080910201909103010E94860008950E94DD
:10038000040181E08093350108950E94F800E09116
:100390003401F0E0EE0FFF1FEE0FFF1FE050FF4FA4
:1003A00060817181828193810E9486001092350163
:1003B00008958091350181110AC080913401873000
:1003C00030F48F5F8093340181E080933501E091B8
:1003D0003401F0E0EE0FFF1FEE0FFF1FE050FF4F64
:1003E00060817181828193810E948600089580914D
:1003F000350181110AC080913401882331F0815088
:100400008093340181E080933501E0913401F0E084
:10041000EE0FFF1FEE0FFF1FE050FF4F6081718155
:10042000828193810E94860008950E94F8000895B9
:100430008FEF84B915B811B882B9109236011092B5
:1004400034011092350110923301109232010E9452
:10045000F80080B180958770809336010E94090171
:10046000F8CFEE0FFF1F0024001C0BBE0790F69183
:10047000E02D09940E94E70208F481E008950E94AB
:1004800053020C9422030E941B0358F00E94140391
:1004900040F029F45F3F29F00C940B0351110C94A8
:1004A00056030C9411030E94330368F39923B1F3AC
:1004B000552391F3951B550BBB27AA27621773078A
:1004C000840738F09F5F5F4F220F331F441FAA1F1E
:1004D000A9F335D00E2E3AF0E0E832D091505040DA
:1004E000E695001CCAF72BD0FE2F29D0660F771F88
:1004F000881FBB1F261737074807AB07B0E809F06E
:10050000BB0B802DBF01FF2793585F4F3AF09E3FF2
:10051000510578F00C940B030C9456035F3FE4F301
:10052000983ED4F3869577956795B795F7959F5F35
:10053000C9F7880F911D9695879597F90895E1E081
:10054000660F771F881FBB1F621773078407BA07E0
:1005500020F0621B730B840BBA0BEE1F88F7E0953B
:1005600008950E94B8026894B1110C94560308953E
:100570000E943B0388F09F5798F0B92F9927B751F5
:10058000B0F0E1F0660F771F881F991F1AF0BA9537
:10059000C9F714C0B13091F00E945503B1E008953D
:1005A0000C945503672F782F8827B85F39F0B93F2F
:1005B000CCF3869577956795B395D9F73EF49095EA
:1005C0008095709561957F4F8F4F9F4F0895990F3C
:1005D0000008550FAA0BE0E8FEEF16161706E8070D
:1005E000F907C0F012161306E407F50798F0621B2E
:1005F000730B840B950B39F40A2661F0232B242B03
:10060000252B21F408950A2609F4A140A6958FEF21
:10061000811D811D089597F99F6780E870E060E073
:1006200008959FEF80EC089500240A94161617068B
:1006300018060906089500240A94121613061406D3
:1006400005060895092E0394000C11F4882352F036
:10065000BB0F40F4BF2B11F460FF04C06F5F7F4FEE
:100660008F4F9F4F089557FD9058440F551F59F0D5
:100670005F3F71F04795880F97FB991F61F09F3F8F
:1006800079F087950895121613061406551FF2CFB8
:100690004695F1DF08C0161617061806991FF1CF08
:1006A00086957105610508940895E894BB2766272F
:1006B0007727CB0197F908950E94E70208F48FEF9E
:1006C00008950E9474030C9422030E94140338F0CE
:1006D0000E941B0320F0952311F00C940B030C9443
:1006E000110311240C9456030E94330370F3959F59
:1006F000C1F3950F50E0551F629FF001729FBB2719
:10070000F00DB11D639FAA27F00DB11DAA1F649FB4
:100710006627B00DA11D661F829F2227B00DA11D67
:10072000621F739FB00DA11D621F839FA00D611DED
:10073000221F749F3327A00D611D231F849F600D0E
:10074000211D822F762F6A2F11249F5750409AF037
:10075000F1F088234AF0EE0FFF1FBB1F661F771FC3
:10076000881F91505040A9F79E3F510580F00C948E
:100770000B030C9456035F3FE4F3983ED4F3869545
:1007800077956795B795F795E7959F5FC1F7FE2B2E
:10079000880F911D9695879597F90895F894FFCF46
:1007A000A4D082437BD49243A4D0A443719DAE4392
:1007B0000000C4430000DC43A4F0F64300D0024430
:0E07C0000000000200000000750000000000B4
:00000001FF
