:100000000C9446000C9465000C9465000C946500FB
:100010000C9465000C9465000C9465000C946500CC
:100020000C9465000C9465000C9465000C946500BC
:100030000C9465000C94A3000C9465000C9465006E
:100040000C9465000C9465000C9465000C9465009C
:100050000C9465000C9465000C9465000C9465008C
:100060000C9465000C9465000C9465000C9465007C
:100070000C9465000C9465000C9465000C9465006C
:100080000C9465000C9465000C94650011241FBE4F
:10009000CFEFD0E4DEBFCDBF11E0A0E0B1E0E6EEEF
:1000A000F8E000E00BBF02C007900D92A233B10749
:1000B000D9F721E0A2E3B1E001C01D92A234B2075A
:1000C000E1F70E94B2020C9471040C940000CF93EB
:1000D000C82F8A3019F48DE00E9467008091C0001B
:1000E00085FFFCCFC093C60080E090E0CF910895DB
:1000F0008BE0809381008DE790E09093890080935E
:10010000880082E080936F00109285001092840036
:100110008091200190912101A0912201B0912301B1
:100120008093320190933301A0933401B093350151
:100130008FB780688FBF089510928100089581E085
:100140008093360108951F920F920FB60F921124DB
:100150000BB60F922F933F934F935F936F937F93C1
:100160008F939F93AF93BF93EF93FF93809132014F
:1001700090913301A0913401B09135010197A1090B
:10018000B1098093320190933301A0933401B0936D
:100190003501892B8A2B8B2B91F40E949F00809133
:1001A000200190912101A0912201B091230180931F
:1001B000320190933301A0933401B0933501FF9144
:1001C000EF91BF91AF919F918F917F916F915F91CF
:1001D0004F913F912F910F900BBE0F900FBE0F903C
:1001E0001F90189560932001709321018093220144
:1001F0009093230160933201709333018093340113
:10020000909335010895CF92DF92EF92FF926B01A8
:100210007C01609137017091380180913901909192
:100220003A01A70196010E94DD02882309F458C013
:1002300020E030E0A901C701B6010E94DD02811172
:1002400006C0E1E9F0E080818870808305C0E1E9C3
:10025000F0E080818360808328E539E344E75FE351
:10026000C701B6010E94DD0288233CF48FEF9FEFA7
:10027000909399008093980027C020E034E244EFE7
:1002800056E4C701B6010E94FF0318162CF4109221
:1002900099001092980018C020E030E040E053E44C
:1002A000C701B6010E9404049B01AC0160E074E246
:1002B00084EF9AE40E94E2020E94540361507109A3
:1002C000709399006093980010929500109294009A
:1002D000C0923701D0923801E0923901F0923A0190
:1002E000FF90EF90DF90CF90089580E4809390008E
:1002F0008BE08093910060E070E0CB010E940301ED
:1003000008951092900010929100089580913F01FD
:10031000909140018130910571F030F0823091056B
:1003200029F10397A9F146C081E090E09093400144
:1003300080933F0145C080914101823039F482E0D1
:1003400090E09093400180933F013AC0843039F4AB
:1003500083E090E09093400180933F0131C081E0C1
:1003600090E09093400180933F012AC08091410129
:10037000823039F482E090E09093400180933F0115
:100380001FC081E090E09093400180933F0118C02E
:1003900080914101843039F483E090E090934001F2
:1003A00080933F010DC081E090E0909340018093E5
:1003B0003F0106C081E090E09093400180933F01AF
:1003C00080913F01909140018230910599F08330F6
:1003D000910571F1019709F048C010923C016091BC
:1003E00000017091010180910201909103010E942E
:1003F0000301089580913C0181110AC080913B0165
:10040000873030F48F5F80933B0181E080933C0123
:10041000E0913B01F0E0EE0FFF1FEE0FFF1FE050F9
:10042000FF4F60817181828193810E940301089551
:1004300080913C0181110AC080913B01882331F0F9
:10044000815080933B0181E080933C01E0913B012E
:10045000F0E0EE0FFF1FEE0FFF1FE050FF4F608137
:100460007181828193810E940301089580913D01F1
:1004700090913E0181309105B1F018F0029739F169
:1004800038C080914101813039F481E090E090934F
:100490003E0180933D0131C081112FC010923E0179
:1004A00010923D012AC080914101811107C082E074
:1004B00090E090933E0180933D011FC08130E9F4AC
:1004C00081E090E090933E0180933D0116C08091C1
:1004D0004101811107C082E090E090933E0180933A
:1004E0003D010BC0813049F410923E0110923D0154
:1004F00004C010923E0110923D0180913D01909107
:100500003E018130910539F018F00297B1F027C013
:100510000E94810108950E947501E0913B01F0E085
:10052000EE0FFF1FEE0FFF1FE050FF4F6081718144
:10053000828193810E94030108950E947501E091D8
:100540003B01F0E0EE0FFF1FEE0FFF1FE050FF4FEB
:1005500060817181828193810E94030108950E94CC
:10056000810108958FEF84B915B811B882B910923E
:10057000410110923B0110923C01109240011092F7
:100580003F0110923E0110923D0162E370E080E075
:1005900090E00E94F2000E94780080B18095877000
:1005A000809341010E9486010E94360280913601AB
:1005B0008823E1F310923601F0CF0E948A0308F4F9
:1005C00081E008950E94F6020C94C5030E94BE03C8
:1005D00058F00E94B70340F029F45F3F29F00C94D3
:1005E000AE0351110C94F9030C94B4030E94D6038A
:1005F00068F39923B1F3552391F3951B550BBB2752
:10060000AA2762177307840738F09F5F5F4F220F96
:10061000331F441FAA1FA9F335D00E2E3AF0E0E88D
:1006200032D091505040E695001CCAF72BD0FE2FD7
:1006300029D0660F771F881FBB1F2617370748076B
:10064000AB07B0E809F0BB0B802DBF01FF27935823
:100650005F4F3AF09E3F510578F00C94AE030C9436
:10066000F9035F3FE4F3983ED4F386957795679559
:10067000B795F7959F5FC9F7880F911D9695879558
:1006800097F90895E1E0660F771F881FBB1F621777
:1006900073078407BA0720F0621B730B840BBA0B35
:1006A000EE1F88F7E09508950E945B036894B111EE
:1006B0000C94F90308950E94DE0388F09F5798F088
:1006C000B92F9927B751B0F0E1F0660F771F881F57
:1006D000991F1AF0BA95C9F714C0B13091F00E9471
:1006E000F803B1E008950C94F803672F782F88275A
:1006F000B85F39F0B93FCCF3869577956795B39598
:10070000D9F73EF490958095709561957F4F8F4F06
:100710009F4F0895990F0008550FAA0BE0E8FEEFD0
:1007200016161706E807F907C0F012161306E407B5
:10073000F50798F0621B730B840B950B39F40A26AE
:1007400061F0232B242B252B21F408950A2609F48C
:10075000A140A6958FEF811D811D089597F99F6790
:1007600080E870E060E008959FEF80EC0895002439
:100770000A941616170618060906089500240A9406
:1007800012161306140605060895092E0394000C8C
:1007900011F4882352F0BB0F40F4BF2B11F460FF1B
:1007A00004C06F5F7F4F8F4F9F4F089557FD905844
:1007B000440F551F59F05F3F71F04795880F97FB25
:1007C000991F61F09F3F79F08795089512161306DF
:1007D0001406551FF2CF4695F1DF08C0161617060E
:1007E0001806991FF1CF8695710561050894089543
:1007F000E894BB2766277727CB0197F908950E94D5
:100800008A0308F48FEF08950E9417040C94C5031F
:100810000E94B70338F00E94BE0320F0952311F028
:100820000C94AE030C94B40311240C94F9030E94AD
:10083000D60370F3959FC1F3950F50E0551F629F4B
:10084000F001729FBB27F00DB11D639FAA27F00D29
:10085000B11DAA1F649F6627B00DA11D661F829F50
:100860002227B00DA11D621F739FB00DA11D621F35
:10087000839FA00D611D221F749F3327A00D611D52
:10088000231F849F600D211D822F762F6A2F112434
:100890009F5750409AF0F1F088234AF0EE0FFF1F67
:1008A000BB1F661F771F881F91505040A9F79E3FBE
:1008B000510580F00C94AE030C94F9035F3FE4F310
:1008C000983ED4F3869577956795B795F795E79514
:1008D0009F5FC1F7FE2B880F911D9695879597F91D
:0608E0000895F894FFCF1B
:1008E600A4D082437BD49243A4D0A443719DAE434B
:1008F6000000C4430000DC43A4F0F64300D00244E9
:100906000100000000000002000000006700000077
:020916000000DF
:00000001FF
