:100000000C9446000C9465000C9465000C946500FB
:100010000C9465000C9465000C9465000C946500CC
:100020000C9465000C9465000C9465000C946500BC
:100030000C9465000C94A3000C9465000C9465006E
:100040000C9465000C9465000C9465000C9465009C
:100050000C9465000C9465000C9465000C9465008C
:100060000C9465000C9465000C9465000C9465007C
:100070000C9465000C9465000C9465000C9465006C
:100080000C9465000C9465000C94650011241FBE4F
:10009000CFEFD0E4DEBFCDBF11E0A0E0B1E0E6E6F7
:1000A000F5E000E00BBF02C007900D92A231B1074E
:1000B000D9F721E0A2E1B1E001C01D92A732B20759
:1000C000E1F70E943F020C94B1020C940000CF9320
:1000D000C82F8A3019F48DE00E9467008091C0001B
:1000E00085FFFCCFC093C60080E090E0CF910895DB
:1000F0008BE0809381008DE790E09093890080935E
:10010000880082E080936F00109285001092840036
:100110008091000190910101A0910201B091030131
:100120008093130190931401A0931501B0931601CD
:100130008FB780688FBF089510928100089581E085
:100140008093170108951F920F920FB60F921124FA
:100150000BB60F922F933F934F935F936F937F93C1
:100160008F939F93AF93BF93EF93FF93809113016E
:1001700090911401A0911501B09116010197A10968
:10018000B1098093130190931401A0931501B093CA
:100190001601892B8A2B8B2B91F40E949F00809152
:1001A000000190910101A0910201B091030180939F
:1001B000130190931401A0931501B0931601FF91C0
:1001C000EF91BF91AF919F918F917F916F915F91CF
:1001D0004F913F912F910F900BBE0F900FBE0F903C
:1001E0001F901895609300017093010180930201A4
:1001F0009093030160931301709314018093150190
:100200009093160108958091190190911A018130FF
:10021000910571F030F08230910589F00397B1F0CB
:100220001CC081E090E090931A01809319011BC0DB
:1002300082E090E090931A018093190114C083E04A
:1002400090E090931A01809319010DC081E090E035
:1002500090931A018093190106C081E090E0909379
:100260001A01809319018091190190911A0182302D
:10027000910549F08330910551F0019759F481E0DF
:1002800080931B01089582E080931B01089584E010
:1002900080931B010895809124019091250100977E
:1002A00019F0019741F00CC081E090E09093250196
:1002B0008093240109C0109225011092240104C0EA
:1002C0001092250110922401809124019091250122
:1002D000009719F0019729F0089588E08093230191
:1002E000089510922301089580911C0190911D01A1
:1002F000892B29F410921D0110921C0104C0109248
:100300001D0110921C0180911C0190911D01892BEF
:1003100049F490911B0180912301892B9091220136
:10032000892B85B908958091200190912101813018
:100330009105A1F018F00297D9F164C080912601CF
:10034000843039F481E090E0909321018093200182
:100350005DC0109221011092200158C080912601A9
:10036000843079F42091180190911201291309C069
:1003700082E090E090932101809320011092180177
:1003800045C0843081F48091180190911201891741
:1003900051F021E030E030932101209320018F5F64
:1003A0008093180133C010922101109220012EC0B9
:1003B00080912601843079F42091180190911201E6
:1003C000291309C081E090E09093210180932001DE
:1003D000109218011BC0843081F480911801909113
:1003E0001201891751F022E030E03093210120936F
:1003F00020018F5F8093180109C010922101109293
:10040000200104C01092210110922001809120014E
:10041000909121018130910539F018F0029741F057
:10042000089510922201089580E180932201089599
:1004300010922201089580911E0190911F01892B35
:10044000E9F480912601813011F0853041F49091DA
:100450001201933020F49F5F909312010BC0823001
:1004600011F0863039F480911201882319F08150FF
:100470008093120110921F0110921E01089511B86D
:100480008FEF82B984B915B861E070E080E090E048
:100490000E94F2000E94780010921B01109223012A
:1004A00010922201109226011092180181E090E032
:1004B00090931A0180931901109225011092240142
:1004C00010921D0110921C01109221011092200126
:1004D000C12CD12C7601412C512C3201812C912C34
:1004E000540180B180958470809326018CE2881637
:1004F00081E09806A104B10428F00E940301812C38
:10050000912C540188EE481683E05806610471046A
:1005100028F00E944B01412C512C320182E0C81678
:10052000D104E104F10428F00E949301C12CD12CE4
:1005300076010E947401809117018823E1F31092E3
:1005400017018FEF881A980AA80AB80A8FEF481A7D
:10055000580A680A780A8FEFC81AD80AE80AF80A0F
:06056000C0CFF894FFCFAC
:10056600010000000000000200000000670000001B
:02057600000083
:00000001FF
