:100000000C9446000C9465000C9465000C946500FB
:100010000C9465000C9465000C9465000C946500CC
:100020000C9465000C9465000C9465000C946500BC
:100030000C9465000C94A3000C9465000C9465006E
:100040000C9465000C9465000C9465000C9465009C
:100050000C9465000C9465000C9465000C9465008C
:100060000C9465000C9465000C9465000C9465007C
:100070000C9465000C9465000C9465000C9465006C
:100080000C9465000C9465000C94650011241FBE4F
:10009000CFEFD0E4DEBFCDBF11E0A0E0B1E0E4EEF1
:1000A000F5E000E00BBF02C007900D92A231B1074E
:1000B000D9F721E0A2E1B1E001C01D92A832B20758
:1000C000E1F70E9473020C94F0020C940000CF93AD
:1000D000C82F8A3019F48DE00E9467008091C0001B
:1000E00085FFFCCFC093C60080E090E0CF910895DB
:1000F0008BE0809381008DE790E09093890080935E
:10010000880082E080936F00109285001092840036
:100110008091000190910101A0910201B091030131
:100120008093140190931501A0931601B0931701C9
:100130008FB780688FBF089510928100089581E085
:100140008093180108951F920F920FB60F921124F9
:100150000BB60F922F933F934F935F936F937F93C1
:100160008F939F93AF93BF93EF93FF93809114016D
:1001700090911501A0911601B09117010197A10965
:10018000B1098093140190931501A0931601B093C7
:100190001701892B8A2B8B2B91F40E949F00809151
:1001A000000190910101A0910201B091030180939F
:1001B000140190931501A0931601B0931701FF91BC
:1001C000EF91BF91AF919F918F917F916F915F91CF
:1001D0004F913F912F910F900BBE0F900FBE0F903C
:1001E0001F901895609300017093010180930201A4
:1001F000909303016093140170931501809316018D
:1002000090931701089580911A0190911B018130FC
:10021000910571F030F08230910589F00397B1F0CB
:100220001CC081E090E090931B0180931A011BC0D9
:1002300082E090E090931B0180931A0114C083E048
:1002400090E090931B0180931A010DC081E090E033
:1002500090931B0180931A0106C081E090E0909377
:100260001B0180931A0180911A0190911B01823029
:10027000910549F08330910551F0019759F481E0DF
:1002800080931C01089582E080931C01089584E00E
:1002900080931C010895809125019091260100977B
:1002A00019F0019741F00CC081E090E09093260195
:1002B0008093250109C0109226011092250104C0E7
:1002C000109226011092250180912501909126011E
:1002D000009719F0019729F0089588E08093240190
:1002E000089510922401089580911D0190911E019E
:1002F000892B29F410921E0110921D0104C0109246
:100300001E0110921D0180911D0190911E01892BEB
:1003100049F490911C0180912401892B9091230133
:10032000892B85B908958091210190912201813016
:100330009105A1F018F00297D9F164C080912701CE
:10034000843039F481E090E0909322018093210180
:100350005DC0109222011092210158C080912701A6
:10036000843079F42091190190911301291309C067
:1003700082E090E090932201809321011092190174
:1003800045C0843081F4809119019091130189173F
:1003900051F021E030E030932201209321018F5F62
:1003A0008093190133C010922201109221012EC0B6
:1003B00080912701843079F42091190190911301E3
:1003C000291309C081E090E09093220180932101DC
:1003D000109219011BC0843081F480911901909111
:1003E0001301891751F022E030E03093220120936D
:1003F00021018F5F8093190109C010922201109290
:10040000210104C01092220110922101809121014A
:10041000909122018130910539F018F0029741F056
:10042000089510922301089580E180932301089597
:1004300010922301089580B1982F917080B180951A
:10044000827020911F01309120012115310521F08A
:100450002130310569F13FC08230A1F48091130150
:10046000853080F4909112019130E1F58F5F809397
:1004700013011092120181E090E09093200180938B
:100480001F01089591112EC080911301882351F10D
:1004900090911201913031F58150809313011092A7
:1004A000120181E090E09093200180931F01089554
:1004B000992311F0823039F481E090E0909320018B
:1004C00080931F0108951092200110921F0181E076
:1004D0008093120108951092200110921F0181E073
:1004E00080931201089511B88FEF82B984B915B8BD
:1004F00061E070E080E090E00E94F2000E947800ED
:1005000010921C01109224011092230110922701D5
:10051000109219011092130181E08093120181E081
:1005200090E090931B0180931A0110922601109283
:10053000250110921E0110921D01109222011092AD
:1005400021011092200110921F01C12CD12C7601A3
:10055000412C512C3201812C912C540180B1809579
:100560008470809327018CE2881681E09806A104AC
:10057000B10428F00E940301812C912C540188EED3
:10058000481683E058066104710428F00E944B016C
:10059000412C512C320182E0C816D104E104F1044F
:1005A00028F00E949301C12CD12C76010E941B02DD
:1005B0000E947401809118018823E1F310921801C0
:1005C0008FEF881A980AA80AB80A8FEF481A580AB3
:1005D000680A780A8FEFC81AD80AE80AF80ABECF64
:0405E000F894FFCFBD
:1005E400010000000000000200000000670000009D
:0205F400000005
:00000001FF
